[
  [
    "from", [{
      "address": "mszYqVnqKoQx4jcTdJXxwKAissE3Jbrrc1",
      "txId": "a477af6b2667c29670467e4e0728b685ee07b240235771862318e29ddbe58458",
      "outputIndex": 0,
      "script": "OP_DUP OP_HASH160 20 0x88d9931ea73d60eaf7e5671efc0552b912911f2a OP_EQUALVERIFY OP_CHECKSIG",
      "satoshis": 1020000
    }],
    "to", ["mrU9pEmAx26HcbKVrABvgL7AwA5fjNFoDc", 1010000],
    "sign", ["cSBnVM4xvxarwGQuAfQFwqDg9k5tErHUHzgWsEfD4zdwUasvqRVY"],
    "serialize", "02000000015884e5db9de218238671572340b207ee85b628074e7e467096c267266baf77a4000000006b483045022100dc05da216d54c330a412b2c631242f9be843ac1ee39a8e05d295b2fbdf104f3f02207099ba3b5b9e678095d864f6900ac5496c166c19931987a5e4e8803f06e7c7a001210223078d2942df62c45621d209fab84ea9a7a23346201b7727b9b45a29c4e76f5effffffff0150690f00000000001976a9147821c0a3768aa9d1a37e16cf76002aef5373f1a888ac000000009e54bd66"
  ],
  [
    "from", [{
      "txid": "e42447187db5a29d6db161661e4bc66d61c3e499690fe5ea47f87b79ca573986",
      "vout": 1,
      "address": "mgBCJAsvzgT2qNNeXsoECg2uPKrUsZ76up",
      "scriptPubKey": "76a914073b7eae2823efa349e3b9155b8a735526463a0f88ac",
      "amount": 0.01080000
    }],
    "to", ["mn9new5vPYWuVN5m3gUBujfKh1uPQvR9mf", 500000],
    "to", ["mw5ctwgEaNRbxkM4JhXH3rp5AyGvTWDZCD", 570000],
    "sign", ["cSQUuwwJBAg6tYQhzqqLWW115D1s5KFZDyhCF2ffrnukZxMK6rNZ"],
    "serialize", "0200000001863957ca797bf847eae50f6999e4c3616dc64b1e6661b16d9da2b57d184724e4010000006a473044022023a0e75292525bb6f2ec956748466fd77e36562a21d83319bd9a9e31e6c520440220609260a6c5f2f71d77a37c9e793009dc64616d97094436223d372ab673ca4caf0121039dd446bbc85db6917f39c0b4c295b0f8cce76d1926fa76d7b84e3f7ff1c5eec5ffffffff0220a10700000000001976a91448c819246ae5645ceecd41fbe1aa6202a0a9b5ca88ac90b20800000000001976a914aab76ba4877d696590d94ea3e02948b55294815188ac000000009e54bd66"
  ],
  [
    "from", [
      [{
        "txid": "a9db84566e0fc9351e86337d2828ab281b25ddc06fab798f6d4b5baef48c02b3",
        "vout": 0,
        "address": "mn9new5vPYWuVN5m3gUBujfKh1uPQvR9mf",
        "account": "",
        "scriptPubKey": "76a91448c819246ae5645ceecd41fbe1aa6202a0a9b5ca88ac",
        "amount": 0.00500000,
        "confirmations": 0
      }, {
        "txid": "a9db84566e0fc9351e86337d2828ab281b25ddc06fab798f6d4b5baef48c02b3",
        "vout": 1,
        "address": "mw5ctwgEaNRbxkM4JhXH3rp5AyGvTWDZCD",
        "account": "",
        "scriptPubKey": "76a914aab76ba4877d696590d94ea3e02948b55294815188ac",
        "amount": 0.00570000,
        "confirmations": 0
      }]
    ],
    "to", ["mtymcCX5KixPjT1zxtg59qewBGWptj9etH", 1060000],
    "sign", [
      ["cPGbA2C54ZZ1sw4dc2ckBE1WqkdrNSbEV8Tkjhi2p1J15oErdgP2", "cSpyve5bXAuyHrNeV9MjTdFz3HLw739yUjjUAUSMe3ppf2qzj2hw"]
    ],
    "serialize", "0200000002b3028cf4ae5b4b6d8f79ab6fc0dd251b28ab28287d33861e35c90f6e5684dba9000000006a4730440220231c109453cfe47db8580ba20c140432c3ad897e4fb4a9e848686e9d697968c5022026448a986ef388d91c9a226dd4df8d41f8cedfab2fb2e702744e6b0f91d340770121030253c73236acf5ea9085d408220141197f6094de07426bd0d32c7a543614fdd7ffffffffb3028cf4ae5b4b6d8f79ab6fc0dd251b28ab28287d33861e35c90f6e5684dba9010000006b483045022100c63937e73766020fdfb298be1be73ecbacf75f46058e3439de4bfcf4dfb8540f0220490d1dcf6a533fd04ee7ca2ce754a7b3a545201c99a335066032a6e6515b5514012102977a001a0a7bbfd1f8a647c7d46e13e8f6920635b328390b43b3303977101149ffffffff01a02c1000000000001976a91493abf1e9e4a20c125b93f93ee39efc16b6e4bc4688ac000000009e54bd66"
  ],
  [
    "from", [{
      "address": "mgJT8iegL4f9NCgQFeFyfvnSw1Yj4M5Woi",
      "txid": "f50e13cecda9a438ebd7df213a2899e42b2461a18d4630ee773d26b4f2688bdc",
      "vout": 1,
      "scriptPubKey": "76a914089acaba6af8b2b4fb4bed3b747ab1e4e60b496588ac",
      "amount": 0.01
    }],
    "to", ["n3riXZowrjGnY74rx7Hdi9wCyvgyJC28zZ", 990000],
    "sign", ["cPwWtDztEgRCMCU8pMQp4HgphvyadrAsYBrCjXUZuDSmnZkyoyNF"],
    "serialize", "0200000001dc8b68f2b4263d77ee30468da161242be499283a21dfd7eb38a4a9cdce130ef5010000006a4730440220507d86465d98105ade3ee389d607901e2898e0334fb91533e30534df74a7592702204851b50bf824d5449670f48854db47b41f864389bf825e151ce0b76495e017d9012103e26b47e7c0d8946954bf9dd4bc7f9e415437eb98271d05f69e78cef8fc6c9a54ffffffff01301b0f00000000001976a914f50f9826ef186074c6fe206cca6b71472ff07ba888ac000000009e54bd66"
  ],
  [
    "from", [{
      "address":"38nw4sTs3fCH1YiBjYeQAX1t9eWMxpek8Z","txid":"073281b2cc94e879aaf30ea2e92947d9827b270015849d3a5b96a89ee15bfa66","vout":0,"ts":1418877950,"scriptPubKey":"a9144de752833233fe69a20064f29b2ca0f6399c8af387","amount":0.00318512,"confirmationsFromCache":false
    }, ["03411e021210a933c247ea9c8dad4bbead281597d508ad84e899de13e4ce98b4ba", "03bda2c3cc11a391b36e3d695b03ab42b96fe04086b2349056108d858983e60dab", "03c16e6ecf4e02bf9db23d3247ab92db8881f0866133ffb530c3470f6d8dea7330"], 2],
    "to", ["3BazTqvkvEBcWk7J4sbgRnxUw6rjYrogf9", 300299],
    "sign", [["cUKzr5XXAefuLVQMknvy2hTTE8hE4hFnmfF9qUdypggxhNSXLmGu", "cTw4aaiEAuMrgd6pKL5fkiWMLSpTkVsdE56iNt11FeCe4YhMhZrd"]],
    "serialize", "020000000166fa5be19ea8965b3a9d841500277b82d94729e9a20ef3aa79e894ccb281320700000000fdfd0000483045022100e1680772c81176eb8b5c4ce29d2bb083f5122b6cff965478dcb7c632ce38f0a702200b21453ae3dd9e454181446a1c0e0d0b6d72d784fff0c22501e6a95430936f1c0147304402206b6b8bbedcc0087a52f13525e7f73d6544754835751a69079be26c27a004d7db02206b2a3f5f4d1d6f1cb35b9a1f1a404c6b9347ad1cc8194e71062dc1f5913d8cce014c69522103411e021210a933c247ea9c8dad4bbead281597d508ad84e899de13e4ce98b4ba2103bda2c3cc11a391b36e3d695b03ab42b96fe04086b2349056108d858983e60dab2103c16e6ecf4e02bf9db23d3247ab92db8881f0866133ffb530c3470f6d8dea733053aeffffffff010b9504000000000017a9146c8d8b04c6a1e664b1ec20ec932760760c97688e87000000009e54bd66"
  ],
  [
    "from", [{"address":"3BazTqvkvEBcWk7J4sbgRnxUw6rjYrogf9","txid":"afbf98ca4a43db8915d75184b5204fbe71d916482adfe85cb0ed3635764fc220","vout":0,"ts":1418878108,"scriptPubKey":"a9146c8d8b04c6a1e664b1ec20ec932760760c97688e87","amount":0.00318512,"confirmationsFromCache":false}, ["020483ebb834d91d494a3b649cf0e8f5c9c4fcec5f194ab94341cc99bb440007f2", "0271ebaeef1c2bf0c1a4772d1391eab03e4d96a6e9b48551ab4e4b0d2983eb452b", "03a659828aabe443e2dedabb1db5a22335c5ace5b5b7126998a288d63c99516dd8"], 2
    ],
    "from", [
      {"address":"3BazTqvkvEBcWk7J4sbgRnxUw6rjYrogf9","txid":"dc2e197ab72f71912c39bc23a42d823a3aa8d469fe65eb591c086e60d14c64a0","vout":0,"ts":1418878014,"scriptPubKey":"a9146c8d8b04c6a1e664b1ec20ec932760760c97688e87","amount":0.00300299,"confirmationsFromCache":false}, ["020483ebb834d91d494a3b649cf0e8f5c9c4fcec5f194ab94341cc99bb440007f2", "0271ebaeef1c2bf0c1a4772d1391eab03e4d96a6e9b48551ab4e4b0d2983eb452b", "03a659828aabe443e2dedabb1db5a22335c5ace5b5b7126998a288d63c99516dd8"], 2],
    "to", ["38nw4sTs3fCH1YiBjYeQAX1t9eWMxpek8Z", 150000],
    "to", ["38nw4sTs3fCH1YiBjYeQAX1t9eWMxpek8Z", 160000],
    "change", ["3BazTqvkvEBcWk7J4sbgRnxUw6rjYrogf9"],
    "sign", ["cSq9DzMpUgLEXXJnPo6BYS2wWVWxuy3fynmzF7BeRyx3vVrZGgdv"],
    "sign", ["cV6ExXDSGcu1vDrLhpKrZWBmxVFjct4g1QQw23DZEJhpEvy4K6rs"],
    "serialize", "020000000220c24f763536edb05ce8df2a4816d971be4f20b58451d71589db434aca98bfaf00000000fdfd000047304402207f970fd818b85195cd6735b53fad5c1749657b039196de17d988fef5cd56906802202c32bee9010a1b8dbc62ebf22b48dec1a39716d4e6adb98fba52ca6fc43ea57f01483045022100966a7d97cdfe4ab044881a707e98ec7fcf0da404c07b06c7e58212901277b3d802201d586b32522f1322353cc39d61f2802a78d007a8fcf1c767b4f8b3a676e9131b014c695221020483ebb834d91d494a3b649cf0e8f5c9c4fcec5f194ab94341cc99bb440007f2210271ebaeef1c2bf0c1a4772d1391eab03e4d96a6e9b48551ab4e4b0d2983eb452b2103a659828aabe443e2dedabb1db5a22335c5ace5b5b7126998a288d63c99516dd853aeffffffffa0644cd1606e081c59eb65fe69d4a83a3a822da423bc392c91712fb77a192edc00000000fb00473044022067e009295dd19bfc63667652203e40ebb47136c76778c62f092e98392bb8872402207592996abb91550ed6e786bde813d51928073cc8c8f4158bcc230c86efd5398001463043021f70c53283b33cf1c156f567f5744811656621c1b25a64641f3d02de9832bcf402205fd48354453cad371fbae3fb7dfda6329b3fb5ac1ba1730143c45a477c0e6c01014c695221020483ebb834d91d494a3b649cf0e8f5c9c4fcec5f194ab94341cc99bb440007f2210271ebaeef1c2bf0c1a4772d1391eab03e4d96a6e9b48551ab4e4b0d2983eb452b2103a659828aabe443e2dedabb1db5a22335c5ace5b5b7126998a288d63c99516dd853aeffffffff03f04902000000000017a9144de752833233fe69a20064f29b2ca0f6399c8af387007102000000000017a9144de752833233fe69a20064f29b2ca0f6399c8af38783a203000000000017a9146c8d8b04c6a1e664b1ec20ec932760760c97688e87000000009e54bd66"
  ]
]
